:040000002FEF00F0EE
:100008001F82F6CF01F0F7CF02F0F8CF03F0F5CF5B
:1000180004F00D0E1D181E10D8A405D09D98000ED2
:100028001E6E000E1D6E9EB89DA80BD0F10E1D24ED
:10003800F66E7F0E1E20F76E0800F5CFADFF1D4A45
:100048001E2A04C0F5FF03C0F8FF02C0F7FF01C075
:10005800F6FF1F9211008BEF01F0000E156E000ED7
:10006800146E000E176E000E166E16C00AF014C03D
:1000780010F015C011F0070ED89010361136E82E82
:10008800FBD7FD0E126E790E136E1050122611500A
:100098001322165012261750132212C0F6FF13C04F
:1000A800F7FF0800F5CF0BF01450A0EC00F0164A4B
:1000B800172A17BEDAD7175004E1800E165CD8A0AD
:1000C800D4D7144A152A15BECCD7155005E1080E09
:1000D800145CD8B01200C5D71200166E16C017F0FF
:1000E800186A1CD011C019F01A6A09D019C00AF090
:1000F800000E0B6E1750A0EC00F0194A1A2A125085
:10010800136E146A1950135C1450800A156E1A5035
:10011800800A1558D8B0EAD7174A182A1050136E13
:10012800146A1750135C1450800A156E1850800A10
:100138001558D8A01200D6D70C6E400E0A6004D00D
:10014800000E0E6E010E03D0000E0E6E020E0D6E26
:100158000DC00FF00C506FEC01F00A50F6EC00F0F7
:100168000F5048EC01F0000E936E0F04D8B4819044
:10017800020E0F18D8B481928196818400F081888C
:1001880000F00BC083FF000E956E00F0819881800F
:1001980081821200000E0F013B6F000E396F000EB6
:1001A800836E000E816E000E956E000E936E60ECED
:1001B80001F0070E106E000E116E7F0E126E000E0B
:1001C80071EC00F0000E7DEC01F0F28EF28C9D884F
:1001D800D08EF286240EAC6EB886100EAF6E948C5C
:1001E800AB8E1200096E400E09600CD0010E076E2E
:1001F8000950400913EC01F0020E076E400E13EC93
:1002080001F01200010E076E7F0E13EC01F0020ED2
:10021800076E0950C00F400913EC01F01200086E78
:10022800075048EC01F0000E936E0704D8B4819093
:10023800020E0718D8B481928196819400F08188C3
:1002480000F008C083FF000E956E00F08198818051
:1002580081821200CEEC00F031EC00F01F0E1C6E13
:10026800710E1B6E1E0EE82EFED71B2EFCD71C2E01
:10027800FAD700D0070E106E000E116E7F0E126EA8
:10028800000E71EC00F0FFD7066E9568000E936EB5
:100298000604D8B48190020E0618D8B481928186DB
:1002A800819400F0818800F083CF05F0819805BE25
:1002B800F9D7818081821200818A010E076E3F0E74
:1002C80013EC01F0020E076E3F0E13EC01F0000E66
:1002D8007DEC01F01200096E010E076E0950B80995
:1002E80013EC01F0020E076E0950B80913EC01F087
:1002F8001200096E010E076E0950C00913EC01F0D7
:10030800020E076E0950C00913EC01F012001E6AB4
:100318001D6A1F901F92000EF86E00012EEF01F06B
:1079FC0000808080C0F0F0F8FFFFFFF8FFFFF8FF79
:107A0C00FFFFF8FFFFF8FFFFFFFFFFFFF8F0F0802C
:107A1C0080808000000000000000000000000000DA
:107A2C00000000000000000000000000000000004A
:107A3C00000000000000000000008080808080803A
:107A4C0080000000000000000000000000000000AA
:107A5C00000000000000000000000000000000001A
:107A6C00000000000000000000000000000000000A
:107A7C0000D9DBDBDFFFFFFFFFFFFFFFFFFFFFFF97
:107A8C00FFFFFFFFFFFFFFFFFCFFFFFCFFFFFFDF20
:107A9C00DBDBDB0000000000000000F0F0F8F81861
:107AAC00181838FCF8F8E000000E0E0EFEFEFFFF72
:107ABC0007070700F0FCFEFF0F070101010103019E
:107ACC008300000000000000000000000000000027
:107ADC00000000000000000000000000000000009A
:107AEC00000000000000000000000000000000008A
:107AFC00006DEDEDEFFFFFFFFFFFFFFFFFFFFFFF4F
:107B0C00FFFFFFFFFFFFFFFFFFFFFFFFFFFFFFED8B
:107B1C00EDEDED0000000000000000FFFFFFFF0C8A
:107B2C000C0C0E0707030100007070707F7F3F3F45
:107B3C00383838000107070F0E1C0C0C0C0C0E0704
:107B4C000700000000000000000000000000000022
:107B5C000000000000000000000000008080808019
:107B6C0080C0C0C0C0800000000000000000000009
:107B7C00000707070F3F3F7FFFFFFF7FFFFF7FFFE0
:107B8C00FFFF7FFFFF7FFFFFFFFFFFFF7F3F3F07F1
:107B9C0007070600000000000000000101010100C1
:107BAC000000008080808080808000000000808049
:107BBC00C0C0C0C060E0C0C0000000F0F0F0F00039
:107BCC000000000000FCFCFCFC00000000FEFEFEBF
:107BDC00FEC6C6C6C6C66303000000FFFFFFFF61FA
:107BEC00E1F1F9FFBF9F0F00000000000000000052
:107BFC000000000000000000030303000303000367
:107C0C0083E3E0E3636063337363E303000000002A
:107C1C00E0F0FC7C7CFCF8E0C00000000E070707DD
:107C2C0007FFFFFFFF030303030100F8FEFFFF83C1
:107C3C0001000000008080C1000000FFFFFFFF0773
:107C4C000707070707FFFFFFFF000000007F7F7F8C
:107C5C003F303030303018180000001F1F1F1F003D
:107C6C00000003070F0F0F060400000000000000C7
:107C7C0000000000000000000000000000007CFF7D
:107C8C00FFFFC18000000080C0C0E00000E0FCFFEE
:107C9C00FF3F1F1C1C1F1F7F7F7E784000000000D1
:107CAC00003F3F1F1F000000000000000303030300
:107CBC000706060603030303000000030303030087
:107CCC0000000000000000000000000000000000A8
:107CDC000000000000000000000000000000000098
:107CEC000000000000000000000000000000000088
:107CFC000000000000000000000000000000000078
:107D0C000101010303030301010000000000000056
:107D1C000000000000000000000000000000000057
:107D2C000000000000000000000000000000000047
:107D3C0000000000000000000000000000C0201047
:107D4C0010101020000010F01000000000000020A7
:107D5C00101090600000E0101010E00000201010D7
:107D6C0090600000E0101010E00000000000000027
:107D7C0000000000000000000000000000000000F7
:107D8C0000000000000000000000000000000000E7
:107D9C0000000000000000000000000000000000D7
:107DAC0000000000000000000000000000000000C7
:107DBC0000000000000000000000000000030408A8
:107DCC00080808040000080F080000000000000C60
:107DDC000A0908080000070808080700000C0A092F
:107DEC000808000007080808070000000000000051
:107DFC000000000000007F7F7F7F7F7F0000007FFE
:107E0C007F0101017F7F4040407F7F0000007F3673
:107E1C00495522500005030000001C22410000417E
:107E2C00221C00082A1C2A0808083E0808005030AA
:107E3C000000080808080800303000002010080472
:107E4C00023E5149453E00427F4000426151494645
:107E5C002141454B311814127F1027454545393CBB
:107E6C004A494930017109050336494949360649E1
:107E7C0049291E0036360000005636000000081452
:107E8C002241141414141441221408000201510943
:107E9C0006324979413E7E1111117E7F494949369E
:107EAC003E414141227F4141221C7F494949417F4A
:107EBC00090901013E414151327F0808087F004108
:107ECC007F41002040413F017F081422417F404008
:107EDC0040407F0204027F7F0408107F3E414141F5
:107EEC003E7F090909063E4151215E7F0919294649
:107EFC00464949493101017F01013F4040403F1F44
:107F0C002040201F7F2018207F6314081463030473
:107F1C00780403615149454300007F414102040844
:107F2C00102041417F000004020102044040404007
:107F3C0040000102040020545454787F48444438D3
:107F4C003844444420384444487F38545454180826
:107F5C007E090102081454543C7F08040478004440
:107F6C007D40002040443D00007F10284400417FAC
:107F7C0040007C041804787C080404783844444499
:107F8C00387C14141408081414187C7C0804040895
:107F9C004854545420043F4440203C4040207C1C16
:107FAC002040201C3C4030403C44281028440C50BD
:107FBC0050503C4464544C44000836410000007F4F
:107FCC000000004136080008082A1C08081C2A0872
:107FDC00080800AA0008003838380000000000002B
:107FEC000000000000AAAA00AA00FF000000000088
:037FFC0000000082
:020000040030CA
:0E000000FF021900FFA580FF0FC00FE00F40A8
:00000001FF
